:020000040800F2
:1000000030070020310200086D0200086F0200086E
:100010007102000873020008750200080000000069
:10002000000000000000000000000000770200084F
:1000300079020008000000007B0200087D02000831
:100040007F0200087F0200087F0200087F0200088C
:100050007F0200087F0200087F0200087F0200087C
:100060007F0200087F0200087F0200087F0200086C
:100070007F0200087F0200087F0200087F0200085C
:100080007F0200087F0200087F0200087F0200084C
:100090007F0200087F0200087F0200087F0200083C
:1000A0007F0200087F0200087F0200087F0200082C
:1000B0007F0200087F0200087F0200087F0200081C
:1000C0007F0200087F0200087F0200087F0200080C
:1000D0007F0200087F0200087F0200087F020008FC
:1000E0007F0200087F0200087F0200087F020008EC
:1000F0007F0200087F0200087F0200087F020008DC
:100100007F0200087F0200087F0200087F020008CB
:100110007F0200087F0200087F0200087F020008BB
:100120007F0200087F0200087F0200087F020008AB
:100130007F0200087F0200087F0200087F0200089B
:100140007F0200087F0200087F0200087F0200088B
:100150007F0200087F0200087F0200087F0200087B
:100160007F0200087F0200087F0200087F0200086B
:100170007F0200087F0200087F02000800000000E4
:100180007F0200087F02000800F002F800F040F84B
:100190000AA090E8000C82448344AAF10107DA45E2
:1001A00001D100F035F8AFF2090EBAE80F0013F0F4
:1001B000010F18BFFB1A43F001031847180B00008A
:1001C000380B0000103A24BF78C878C1FAD852071B
:1001D00024BF30C830C144BF04680C6070470000C1
:1001E0000023002400250026103A28BF78C1FBD840
:1001F000520728BF30C148BF0B6070471FB500F0E1
:1002000063FD9DE8030000F019F91FBD10B510BD96
:1002100000F070F91146FFF7F1FF00F041FC00F02B
:100220008EF903B4FFF7F2FF03BC00F0BFF9000042
:1002300016481749174B99423CBF50F8042B41F818
:10024000042BF8D314494FF000028B4238BF43F817
:10025000042BFAD3DFF84400016841F47001016017
:10026000BFF34F8FBFF36F8F0D480047FEE7FEE7E8
:10027000FEE7FEE7FEE7FEE7FEE7FEE7FEE7FEE756
:1002800008480949094A0A4B70470000F40C000865
:1002900000000020040000203007002088ED00E06E
:1002A00089010008300100203007002030030020C1
:1002B0003003002070B5064600F0A4F8056806F18A
:1002C0000B0020F00704B4429CBF002070BD2B46F9
:1002D0006A68BAB11068A04210D304F108018842DC
:1002E0003CBF5068586007D35168101941601168CD
:1002F000091B016058601460101D70BD13465268E0
:10030000002AE7D12146284600F084F80028DED1F3
:1003100070BD70B50446051F00F074F80068002C2D
:1003200014BF446870BD002C18BFAC423CBF2046CF
:100330006468F8D301680A18AA4218BF456003D15F
:100340002A6805461144016028684119A1421CBF72
:100350006C6070BD6168696021680844286070BD88
:1003600040EA0103024630B59B0710D14FF001343B
:1003700000E008C208C91D1B9D4315EAC41FF8D040
:1003800013F0FF0102F8011B0DD01B0AF8E711F86A
:10039000013B002B02F8013B05D011F8013B002B7B
:1003A00002F8013BF3D130BD10B5431C02E010F858
:1003B000011B71B18107FAD14FF0013202C88C1ACA
:1003C0008C4314EAC211F9D0C01A0A0603D0C01E29
:1003D00010BDC01A10BD0A0401D0801E10BD090254
:1003E000FCD0401E10BD421E12F8013F002BFBD175
:1003F00011F8013B002B02F8013BF9D1704770471F
:100400007047704700487047D80000207047704719
:100410007047704738B504460A4600206946AFF376
:100420000080002808BF38BD02460099204600F031
:100430003FF8012038BD012000F054B8F8B5AFF303
:100440000080054600200C46102000BF0646A81973
:10045000A0420DD9324669460020AFF30080070064
:1004600008BF00F03FF80098A04218BF0546C41925
:10047000FFF7C8FF05600746F01D20F0070046198A
:10048000284600F00AF8B44208BFF8BDA21B314666
:100490003868BDE8F84000F00BB800210160C0E901
:1004A000011070471020704700487047D0000020AE
:1004B000034640688C46002818BF88423CBF03466C
:1004C0004068F8D318681844884207D00CF103003C
:1004D00020F00700001D411A521A0146081D0A604B
:1004E000FFF717BF10B500F039F8BDE8104000F075
:1004F0002FB870477546FFF7D7FFAE46050069462F
:10050000534620F00700854618B020B5FFF7B8FE27
:10051000BDE820404FF000064FF000074FF0000804
:100520004FF0000B21F00701AC46ACE8C009ACE885
:10053000C009ACE8C009ACE8C0098D46704710B5E9
:100540000446AFF300802046BDE81040FFF769BEC7
:10055000002801D000F02AB87047000010B501282B
:1005600005D0002103A000F027F8012010BD09A14B
:10057000F8E7000053494752544D454D3A204F7516
:1005800074206F662068656170206D656D6F72798B
:10059000000000003A2048656170206D656D6F7243
:1005A0007920636F72727570746564000149182058
:1005B000ABBEFEE72600020070B505460C460A20D9
:1005C00000E06D1C00F011F835B128780028F8D152
:1005D00002E0641C00F009F814B120780028F8D17A
:1005E000BDE870400A20AFF3008008B569468DF879
:1005F00000000320ABBE08BD2348C06C40F01200D1
:100600002149C8646FF0300020490860084600683E
:1006100040F0100008601D480830006820F03000ED
:100620001A49083108600846006840F03000086048
:10063000081F006820F00400091F086013480C30F0
:10064000006820F0300011490C3108606FF4403030
:100650000F4908600846006840F48030086008468A
:10066000806820F4403088600846806840F440305C
:1006700088600846406820F4807048600846C0687A
:1006800020F44030C8607047001002400004004869
:10069000001000485E49096821F007015C4A1160BA
:1006A0001146096841F0020111605A49096841F494
:1006B0008071584A116000BF5649096801F4806191
:1006C0000029F9D010205349496821F0F851514AC6
:1006D00051601146496841EA00615160114609685C
:1006E00021F08071116000BF4A49096801F0007172
:1006F000B1F1007FF8D04749C96821F00301454AAC
:10070000D1601146C96841F00201D1601146C96843
:1007100021F4FE4141F4A051D1601146C96821F095
:10072000700141F01001D1601146C96821F0C0612B
:10073000D1601146C96841F08071D16011460968E5
:1007400041F08071116000BF3249096801F0007109
:100750000029F9D02F49896821F003012D4A9160C1
:100760001146896841F00301916000BF29498968F9
:1007700001F00C010C29F9D12649896821F0F0011A
:10078000244A91601146896821F4E0619160114624
:10079000896821F4605191601146096821F08061F7
:1007A000116000BF1B49096801F08061B1F1806FE1
:1007B000F8D01849096921F4FE41164A1161114621
:1007C000096941F4C05111611146096941F40031D0
:1007D00011611146096941F48031116111460968BE
:1007E00041F08061116000BF0A49096801F0806131
:1007F0000029F9D007498831096821F44001054AE8
:10080000C2F888101146096E41F400111166704754
:1008100000200240001002401A48C06C40F008005E
:100820001849C8641848006820F4705016490860D8
:100830000846006840F420500860134820300068E3
:1008400040F0EE601049203108600F480830006821
:1008500040F470500C4908310860081D006820F40D
:100860007050091D08600846006840F4A0500860F8
:100870000548001D006820F060000349091D08605C
:100880007047000000100240000C004800B50D4801
:10089000806D40F400300B4988650A488830006854
:1008A00020F00C00C1F888000846D0F8880040F01D
:1008B0000400C1F88800FFF7AFFF034800F010F80C
:1008C00000BD00000010024000440040642242438A
:1008D0000723B2FBF3F100BF4A1E111EFCD1704783
:1008E000016821F001010160016821F0102101601F
:1008F000016821F400410160416821F440514160E8
:1009000042F28D01C160016841F00C0101601E4995
:1009100088421BD1016841F020010160016821F08B
:1009200040010160016821F010010160016821F0BF
:1009300080010160016821F480710160016821F08B
:1009400040010160016821F0010101600F49884206
:1009500009D1016A41F0400101620D49096841F085
:10096000C0010B4A1160016841F00101016000BF44
:10097000C16901F400110029FAD000BFC16901F476
:1009800080010029FAD07047004C0040004400402C
:1009900008380140014600BFC86900F02000002867
:1009A000FAD0888CC0B27047F0B504460E461746A0
:1009B00000250CE000BFE06900F080000028FAD0BC
:1009C000705D20854FF49670FFF780FF6D1CBD426F
:1009D000F0D300BFE06900F040000028FAD0E069E1
:1009E00020F04000E061F0BD10B507A000F046F92E
:1009F00000F03CF904464E2C01D06E2C01D100F0E1
:100A00001BF8204610BD000054616B65206D6F72AD
:100A100065206D6561737572656D656E74733F00F9
:100A2000002004E00021034A22F81010401C652831
:100A3000F8DB70470400002002A000F01FF900BF9F
:100A4000FEE7000045786974696E67207468652068
:100A500070726F6772616D004FF08040406B70473D
:100A60004FF08040406A7047704700000B48C06CF0
:100A700040F001000949C8644FF090400068002030
:100A80004FF0904108600846006840F0020008609E
:100A90000846006A40F001000862704700100240FA
:100AA000FFF7F8FDFFF7A8FDFFF7F0FEFFF7DEFF09
:100AB00000F0BCF800F012F809E0FFF7D5FF00F0F5
:100AC000B3F800F09FF8FFF78FFFFFF7A9FFF4E7F7
:100AD0004FF08040006900F00200704770B50025BB
:100AE000002419A000F0CAF800F08DF8FFF7B4FF59
:100AF0001A49086022E0FFF7EBFF90B1FFF7ACFF67
:100B0000044616480068201A1549884204D8012571
:100B100014A000F0B3F811E000F02CF80F490860C1
:100B20000CE0FFF79DFF04460C480068201A0C49B2
:100B3000884203D900F01EF808490860002DDAD079
:100B400000F06AF870BD00005374617274696E67DA
:100B500020504F53542E2E2E000000000000002085
:100B6000A0860100504F535420636F6D706C657404
:100B70006500000070B511A000F080F812A000F030
:100B80007DF800F073F8044605E014A000F076F854
:100B900000F06CF80446592C05D0792C03D04E2C6B
:100BA00001D06E2CF1D14E2C01D06E2C01D1FFF76B
:100BB00043FFFFF751FF0546284670BD504F535481
:100BC000206661696C6564005472792061676169AF
:100BD0006E3F202859206F72204E2900556E726595
:100BE000636F676E697A656420696E7075742C2016
:100BF000706C65617365207573652059206F722074
:100C00004E00000070474FF08040006840F0010047
:100C10004FF08041086070474FF08040006800202E
:100C20004FF0804108607047704700000E48806DAB
:100C300040F001000C4988655020810688628006DA
:100C4000406940F0010048610846006A00200862DF
:100C50000846806940F0010088610846006A40F05B
:100C600001000862704700000010024010B5024801
:100C7000FFF790FE10BD0000004400402DE9F04158
:100C800005462846FFF790FB061D3046FFF712FB8E
:100C9000044629462046FFF763FB09A12046FFF7DB
:100CA000A2FB2046FFF780FB07463A46214605484F
:100CB000FFF77AFE2046FFF72CFBBDE8F08100002D
:100CC0000D0A0000004400404FF04070E1EE100AB1
:100CD00070470000F40C0008000000200400000031
:100CE000C4010008F80C0008040000202C070000D4
:080CF000E00100080000000013
:040000050800018965
:00000001FF
