:020000040800F2
:1000000038070020DD020008190300081B03000860
:100010001D0300081F030008210300080000000062
:1000200000000000000000000000000023030008A2
:10003000250300080000000027030008290300082A
:100040002B0300082B0300082B0300082B030008D8
:100050002B0300082B0300082B0300082B030008C8
:100060002B0300082B0300082B0300082B030008B8
:100070002B0300082B0300082B0300082B030008A8
:100080002B0300082B0300082B0300082B03000898
:100090002B0300082B0300082B0300082B03000888
:1000A0002B0300082B0300082B0300082B03000878
:1000B0002B0300082B0300082B0300082B03000868
:1000C0002B0300082B0300082B0300082B03000858
:1000D0002B0300082B0300082B0300082B03000848
:1000E0002B0300082B0300082B0300082B03000838
:1000F0002B0300082B0300082B0300082B03000828
:100100002B0300082B0300082B0300082B03000817
:100110002B0300082B0300082B0300082B03000807
:100120002B0300082B0300082B0300082B030008F7
:100130002B0300082B0300082B0300082B030008E7
:100140002B0300082B0300082B0300082B030008D7
:100150002B0300082B0300082B0300082B030008C7
:100160002B0300082B0300082B0300082B030008B7
:100170002B0300082B0300082B03000800000000DD
:100180002B0300082B03000800F002F800F096F89B
:100190000AA090E8000C82448344AAF10107DA45E2
:1001A00001D100F08BF8AFF2090EBAE80F0013F09E
:1001B000010F18BFFB1A43F001031847482B00003A
:1001C000682B0000103A24BF78C878C1FAD85207CB
:1001D00024BF30C830C144BF04680C6070470000C1
:1001E0000023002400250026103A28BF78C1FBD840
:1001F000520728BF30C148BF0B6070476E2900F01E
:100200009B82702900F0E183662902F0CE84652983
:1002100002F0CB84672902F0C884612902F0C78408
:1002200003681B0A28BF41F08001692900F0488259
:10023000642900F04582752900F042826F2900F0A0
:100240006F83782900F0AD83E92900F00983E42960
:1002500000F00683F52900F00383EF2900F06C839A
:10026000F82900F0AC830368DB0928BF41F0800166
:10027000632901F03A81732901F03F81E32901F0FC
:100280004A81F32901F04F81002070471FB502F029
:1002900087FC9DE8030000F07BF901F0E7F904001A
:1002A0000020002102F050FC401C60600020002172
:1002B00002F060FCE0601FBD10B510BD01F0B1F9A7
:1002C0001146FFF7E3FF02F071FA01F08FFA03B471
:1002D000FFF7F2FF03BC01F0BFFA00001648174910
:1002E000174B99423CBF50F8042B41F8042BF8D32C
:1002F00014494FF000028B4238BF43F8042BFAD365
:10030000DFF84400016841F470010160BFF34F8FD2
:10031000BFF36F8F0D480047FEE7FEE7FEE7FEE7FD
:10032000FEE7FEE7FEE7FEE7FEE7FEE708480949CD
:10033000094A0A4B70470000502E000800000020B8
:10034000080000203807002088ED00E0890100083F
:10035000380100203807002038030020380300202F
:1003600070B5064600F0F4F8056806F10B0020F0C1
:100370000704B4429CBF002070BD2B466A68BAB126
:100380001068A04210D304F1080188423CBF5068B5
:10039000586007D35168101941601168091B01604A
:1003A00058601460101D70BD13465268002AE7D1D2
:1003B0002146284600F0D8F80028DED170BD70B57F
:1003C0000446051F00F0C4F80068002C14BF446800
:1003D00070BD002C18BFAC423CBF20466468F8D307
:1003E00001680A18AA4218BF456003D12A68054669
:1003F0001144016028684119A1421CBF6C6070BDA6
:100400006168696021680844286070BD1CB50C46AD
:10041000064B7B4469460090204600F0A6F904464E
:100420000020694600F0B4F920461CBD7B030000A3
:1004300070B5064600F090F80468054630460A227A
:10044000002100F094FB2C6070BD10B504780CB155
:100450000A4603E0002010BDA342FCD012F8013B85
:10046000002BF9D1401CF1E740EA0103024630B508
:100470009B0710D14FF0013400E008C208C91D1BD2
:100480009D4315EAC41FF8D013F0FF0102F8011BC9
:100490000DD01B0AF8E711F8013B002B02F8013BD5
:1004A00005D011F8013B002B02F8013BF3D130BD20
:1004B00010B5431C02E010F8011B71B18107FAD19D
:1004C0004FF0013202C88C1A8C4314EAC211F9D0E1
:1004D000C01A0A0603D0C01E10BDC01A10BD0A04FF
:1004E00001D0801E10BD0902FCD0401E10BD421E6E
:1004F00012F8013F002BFBD111F8013B002B02F851
:10050000013BF9D170474FF000020429C0F012807E
:1005100010F0030C00F06583CCF1040CBCF1020F69
:1005200018BF00F8012BA8BF20F8022BA1EB0C018B
:1005300000F057BB5FEAC17C24BF00F8012B00F834
:10054000012B48BF00F8012B704770477047704778
:1005500000487047DC00002000487047D4000020AD
:10056000704770477047704738B504460A46002008
:100570006946AFF30080002808BF38BD02460099E5
:10058000204600F05FFB012038BD012001F041B89A
:10059000F8B5AFF30080054600200C46102000BFE0
:1005A0000646A819A0420DD9324669460020AFF38D
:1005B0000080070008BF01F02CF80098A04218BF87
:1005C0000546C419FFF7C4FF05600746F01D20F07B
:1005D00007004619284600F00AF8B44208BFF8BDE3
:1005E000A21B31463868BDE8F84000F02BBB002163
:1005F0000160C0E9011070471020704770B50446D3
:1006000085690068C10601D5302600E02026C007B4
:1006100007D070BDD4E9012130469047206A401CC4
:1006200020626D1EF6D570BD70B5044685690078F0
:10063000C00707D170BDD4E9012120209047206A6E
:10064000401C20626D1EF6D570BD09684A0501D5B3
:1006500040B27047C905FCD500B2704709684A0529
:1006600001D5C0B27047C905FCD580B2704770B5DE
:100670000C460546012A05D02878800600D5EA698F
:10068000002302E0012305E05B1C934202D2E05C00
:100690000028F9D1A869E618C01AA861286A184488
:1006A00028622846FFF7AAFF04E0D5E9012114F8E3
:1006B000010B9047B442F8D32846FFF7B5FF70BD51
:1006C0002DE9F0410646002410687529314616A52B
:1006D00010D0FFF7BAFF002802DA404213A507E066
:1006E00031688A0701D512A502E0490704D511A592
:1006F000012401E0FFF7B2FF00210A2206F12407DE
:1007000009E0B0FBF2FCB0FBF2F302FB1C0030305E
:1007100078541846491C0028F3D123462A4630460F
:10072000BDE8F04100F0EDBA000000002D0000002F
:100730002B0000002000000011680268006A5305C9
:1007400001D508700AE0D30501D5088006E013063C
:1007500003D5C217C1E9000200E00860012070471C
:1007600001694A1C02610878704700B58FB0CDE975
:1007700001310021059105497944CDE90310114665
:10078000684600F02DF90FB000BD0000E5FFFFFF47
:100790000A6802F8010B0A60704700002DE9FF5F4C
:1007A00015468A460446DFF8AC80F8440027D8E9AD
:1007B00000103E46CDE9001010E03AF816106A46E7
:1007C00002A800F006FF411C07D02178890603D556
:1007D000E269391891420DD80744761C20788006CA
:1007E00002D5E069B84205DDAE42E6DB3AF8160014
:1007F0000028E2D1A069C01BA0612046FFF7FEFEE1
:10080000D8E90010CDE90010002017E03AF81810E0
:100810006A4602A800F0DDFEB0F1FF3F81460BD032
:1008200000250DF1080B05E0D4E901211BF80500B6
:1008300090476D1C4D45F7D308F10100B04280464A
:10084000E4DB206A384420622046FFF7EDFE00F02A
:1008500003B80000062400003FBCBDE8C09F0000B4
:100860002DE9F0418046D21D22F007020025D2E991
:100870000002F52915A614D0011E72F1000106DA56
:100880000023D0EB030063EB020211A608E0D8F8C6
:1008900000108B0701D50FA602E0490701D50EA66F
:1008A00001251146002408F1240704E000F0E4F9D2
:1008B00030323A55641C50EA0102F7D12B463246D9
:1008C00021464046BDE8F04100F01BBA00000000A0
:1008D0002D0000002B0000002000000030B400219B
:1008E00000F1240408E002F00705D208303542EA9E
:1008F0004372DB086554491C52EA0305F3D10468CE
:10090000002310A2250708D504F020040C4304D0CE
:10091000C46901230CA2641EC46130BC00F0F1B9AB
:1009200010B5044621461068FFF798FE024620469F
:10093000BDE810400023D1E7D21D22F00701D1E924
:100940000023CBE70000000030000000F0B40D46AB
:100950000188090502D5214C7C4402E01F4C7C44EF
:100960000E34002100F1240608E002F00F071209FE
:10097000E75D42EA03721B097754491C52EA0307F8
:10098000F3D102780023120704D5702D06D009B1E7
:10099000022311342246F0BC00F0B3B90123103415
:1009A000F8E770B504460D4621461068FFF756FE7D
:1009B000024629462046BDE870400023C6E7D21D06
:1009C00022F00703D3E90023C0E70368126843F06D
:1009D000200303600823C3610023B7E760220000FF
:1009E0002DE9F05F894604464FF0000ADFF874B144
:1009F000FB44C0F820A02046E1688847002874D056
:100A0000252806D0D4E901219047206A401C2062A5
:100A1000F1E700265F462046E16888472028054622
:100A200007DB312D05D2781910F8200C08B10643E8
:100A3000F1E7B00701D526F00406C4F81CA0002792
:100A4000C4F818A02A2D09D0284601F037FD38B384
:100A500004EB8708303DC8F8185019E059F8041B1A
:100A6000204604EB87029161E1688847012F054623
:100A700018D1E069002820DA26F020061DE0D8F819
:100A8000180000EB800005EB40003038C8F8180073
:100A90002046E1688847054601F010FD0028EED1A8
:100AA000012F0AD02E2D08D12046E16888477F1CEF
:100AB0000546022F46F02006C4DBA069002803DAB1
:100AC000404246F00106A061F00701D026F0100672
:100AD0006C2D0BD0682D09D04C2D39D06A2D35D016
:100AE000742D35D07A2D33D016E038E0E1682F46EA
:100AF00020468847B842054609D16C2F26D04FF4CE
:100B00008060E168064320468847054604E06C2F74
:100B10001AD04FF4807006430DB3A5F14100192897
:100B200002D8203546F400664A462946204626600B
:100B30004E46FFF763FB80B101280BD0F61D26F06F
:100B4000070000F1080956E74020E4E78020D8E7D5
:100B50000020D6E706F104094DE7284652E7206A4F
:100B600000F002B8F021000030BCBDE8C09F2DE9C4
:100B7000F04791460F4680460446002614F8015B74
:100B80002DB100F057F80068405DC007F6D12B2D5D
:100B900002D02D2D18D0641E4A463946204600F05A
:100BA000C6FC27B13968A14201D1C7F800804FF0D7
:100BB000020471050BD54042002803DDFFF7CCFC91
:100BC0000460A007BDE8F08746F48066E4E70028EB
:100BD000F8DAFFF7C1FC04606FF00040F2E74FF075
:100BE000000200B5134694469646203922BFA0E87D
:100BF0000C50A0E80C50B1F12001BFF4F7AF090789
:100C000028BFA0E80C5048BF0CC05DF804EB890079
:100C100028BF40F8042B08BF704748BF20F8022BBC
:100C200011F0804F18BF00F8012B70470048704743
:100C3000D400002010B500F019FD001D10BD00BF4C
:100C4000091F0000034640688C46002818BF8842F0
:100C50003CBF03464068F8D318681844884207D060
:100C60000CF1030020F00700001D411A521A014642
:100C7000081D0A60FFF7A3BB30B5B0F10A024FEAC6
:100C8000900E71F100034EEA817EB0EB0E0061EB35
:100C900091014FEA101E4EEA017E10EB0E0041EB6F
:100CA00011114FEA102E4EEA016E10EB0E0041EBCF
:100CB00011214FEA104E4EEA014E10EB0E0041EBAF
:100CC0001141401841F100014FEAD00040EA417063
:100CD0004FEAD10110EB80054FEA810444EA907499
:100CE00044EB01046D1944EB0404521BA3414FF083
:100CF000000348BF0A3200D530BD401C41F100015D
:100D000030BD2DE9F0470D4699469246044600F164
:100D100024080168880604D5E06921F010012160EB
:100D200000E00120A84201DD471B00E00027A16987
:100D30007A1902EB0900081AA0612078C00602D4D3
:100D40002046FFF75BFC002608E0D4E901211AF8F1
:100D500006009047206A401C761C20624E45F4DB5A
:100D60002078C0060AD52046FFF748FC06E0D4E903
:100D7000012130209047206A401C2062381EA7F1D4
:100D80000107F4DC07E0D4E9012118F805009047D9
:100D9000206A401C2062281EA5F10105F3DC2046D4
:100DA000FFF742FC2078000602D50220BDE8F0875C
:100DB0000120FBE770472DE9FF4F0C461E464FF020
:100DC000FF378BB0D2E90001DDF860800A908A46D7
:100DD000C1F30A5505B93D46002108464FF0000011
:100DE000BAF1000F00F4400005DA00EB80004FF488
:100DF000400101EA50004FEA9059B9F1010F00DDBE
:100E0000B9460A9850EA4A000ED044F61050A5F2AE
:100E1000FF3545432F14B8F1000F1ED07542291E2F
:100E20001EDDC9F100021CE0B8F1010F4FF0000017
:100E300001D0302103E0F24305E02154401CB042D0
:100E4000FBDB30460022002121540B99C1F80880B9
:100E5000C1E900200FB000F0BAB9BD1B6D1CDEE780
:100E60004A4600DA694206A800F052FC06AB93E855
:100E7000070003AB83E8070050460A9900F053FDD2
:100E80008DE80700A0F500501F3800900398002D52
:100E900009DD42F21F014A46084403A9039068464F
:100EA00000F0B2FF08E0A0F500504A461F3803A941
:100EB0000390684600F0BCFF8DE807000004000CBA
:100EC00003D04FF0FF30410800E01046B8F1000FAA
:100ED00003D00022009215461EE0751E05D4FFF7D0
:100EE000CBFE303262556D1EF9D5B3460122084360
:100EF00002D000227F1C04E02078302801D100229B
:100F00007F1E002A099786D01DE0112D07DAFFF712
:100F1000B3FE303262556D1C50EA0102F5D1084330
:100F200002D00098C8B10EE00021681E05E0235CE5
:100F3000625C63542254401E491C8142F7DBAB467D
:100F4000A81B401E0990002004F80B000B98099A7A
:100F5000C0F80880C0E9002B7CE711264FF000089C
:100F600059E72DE9F04F88460446D21D22F00701CB
:100F700091B0D1E90001CDE90A0101F087FA0246FA
:100F80000B98C00F01D02D2007E02068810701D504
:100F90002B2002E0202101EAC000032A099001D0A1
:100FA000072A05DB03464146204600F063FB0BE1C0
:100FB0002078800601D5E06900E00620B8F1650FD1
:100FC000814606D0B8F1660F18D0B8F1670F70D11E
:100FD00031E00020B9F1110F009001DB112301E095
:100FE00009F101030AAA01A90CA8FFF7E4FEDDE953
:100FF0000C70002609F10105834647E001204B46AD
:1010000000904FF000470AAA01A90CA8FFF7D3FEF1
:10101000DDE90DB00C995D46002610B909F101001B
:101020000D18B9EB050003D4C0F1FF3609F1010535
:10103000A5EB09002BE0B9F1010F01DA4FF001092E
:101040000020B9F1110F0090484601DD112300E0A6
:1010500003460AAA01A90CA8FFF7ADFEDDE90C7052
:101060004D4600268346207800070AD4AB4500DAB7
:101070005D4601A8012D04DD411911F8011C30293C
:1010800007D04F4502DA17F1040F04DA0120824637
:101090000FE06D1EEEE7002F02DCED1B3E4403E087
:1010A000781CA84200DD7D1CB81B00F1010A4FF03E
:1010B00000472078000703D4AA4501DB4FF0FF3A30
:1010C0000021B7F1004F0DF143088DF8431024D0F3
:1010D00002202B23002F01DA7F422D230A21021E3A
:1010E000A0F1010000DC5FB197FBF1FC97FBF1F28E
:1010F00001FB1C7C17460CF1300C08F801CDEEE723
:10110000A8F1010003702188090501D5452100E0FF
:101110006521A0F1010800F8011C09980FA9A1EBB5
:101120000807FF1D00B10120411901EBEA70A16918
:101130003844081A401EA0612078C00602D4204618
:10114000FFF75CFA099828B1D4E901219047206A99
:10115000401C20622078C00622D52046FFF74EFAB8
:101160001EE0002E04DBB34502DD01A8805D00E037
:101170003020D4E901219047206A401C2062761C6F
:10118000AAF101005FEA000A0AD100F06FFAC06814
:101190000168405CD4E901219047206A401C20622C
:1011A000281EA5F10105DCDC07E0D4E9012118F8CF
:1011B000010B9047206A401C2062381EA7F10107EE
:1011C000F3DC2046FFF730FA032011B043E630BCD1
:1011D000BDE8C08F2DE9F04F04460D46D21D22F028
:1011E000070089B0D0E900974846394601F04EF92A
:1011F0000246F80F01D02D2307E02068810701D5B2
:101200002B2302E0202101EAC0038DF820300BB12E
:10121000012000E00020032A824601D0072A04DBD7
:101220002946204600F026FA3FE12078800601D4C6
:101230000D2500E0E569C7F30A560D2D49DA0021B6
:101240004FEA175B08464FF00000002F00F4400003
:1012500007DA00EB80004FF4400100EBD07001EAA8
:1012600060008115012901DD4FF0FF3100224FEAB6
:10127000850CBCF1180F06D31346ACF118004FF0E3
:101280008052C24003E04FF4801323FA0CF30CF1B8
:101290000C0CBCF1200F04D3ACF1200C09FA0CF0BB
:1012A00001E007FA0CF000294FF0004801DD18B901
:1012B0000FE00ED140450CD319EB02095F4121B973
:1012C000404502D19F4329EA0209BBEB175F00D0DA
:1012D000761C2088000502D57B48784402E07A48D5
:1012E0007844193808AA302302F80A30037C0AF13E
:1012F0000101002E0AF1020A53546A4602DC4FF043
:10130000300101E04FF031014FF001088DF800107D
:1013100002D0A6F2FF3603E059EA470100D06B4E37
:10132000002D02DC2178090704D54FF002082E2198
:101330008DF80110C44600210BE0C7F303433F01C1
:10134000C35C491C6D1E02F80830052908F101082C
:1013500001DA002DF1DC00210CE000EB1973491CCF
:101360001B786D1E082902F808304FEA091908F1A8
:10137000010801DA002DF0DC21688B0602D516E0A9
:10138000A8F10108E04505DD02EB080313F8013C74
:10139000302BF5D0B8F1000F09DD02EB080313F88C
:1013A000013C2E2B03D1090701D4A8F10108002D1F
:1013B00005DD3E2102F808106D1E08F10108407C91
:1013C000002E02F8080008F1010804DA2D20764208
:1013D00002F8080002E02B2002F808000A214FF46E
:1013E0007A70864208F101080BDB96FBF0F330338C
:1013F00002F8083096FBF0F308F1010800FB1366D1
:1014000001E0642E0CDB642096FBF0F3303302F82D
:10141000083096FBF0F308F1010800FB136601E0C9
:101420000A2E06DB96FBF1F0303002F8080008F1D6
:10143000010896FBF1F001FB1060303002F8080063
:10144000A16908F1010808EB050202EB0A00081A7D
:10145000A0612078C00602D42046FFF7CFF8216AA9
:1014600008AE01EB0A00206204E0D4E9012116F87D
:10147000010B9047BAF1010AF7D22078C00602D5D5
:101480002046FFF7BBF86E4609E016F8010B3E2830
:101490000FD0D4E901219047206A401C2062B8F1A6
:1014A0000108F2D22046FFF7BFF809B0032000F090
:1014B0000FB8206A2844206203E0D4E901213020DB
:1014C00090476D1EEBD3F8E72A19000002FCFFFFDE
:1014D00030BCBDE8C08F10B5436913B1AFF30080D5
:1014E00001E0FFF7C4F8012010BD127800F12401DB
:1014F0000A7000224A700122EDE711684FF0FF32B6
:10150000E9E710B5436913B1AFF3008001E0FFF7DD
:1015100045F9012010BD128800F1240182840022C7
:10152000C2840122EDE711684FF0FF32E9E72DE9AF
:10153000F05F824615468B4600270AF10104B94642
:101540000078302801D09DB113E014F8010B012779
:10155000782803D0582801D045B10AE00DB1102DEC
:1015600007D1002714F8010B102502E0082500E040
:101570000A250026B0460EE005FB080005FB06F133
:1015800001271FFA80F801EB1046B6F5803F00D323
:10159000B94614F8010B294600F0ACF80028EBDA44
:1015A000BBF1000F05D00FB1641E00E05446CBF82C
:1015B0000040B9F1000F06D0FEF7CEFF0221016016
:1015C000C81E00F003B848EA0640FAE730BCBDE8A0
:1015D000C09F70B516460C460546FFF72BFB036807
:1015E00093F80101012806D0FF2C0FD8185D68B1CF
:1015F00001202C7070BDD3F807013246214603F25A
:10160000071303442846BDE8704018474FF0FF30E9
:1016100070BD10B500F0F8F8BDE8104000F0EFB86C
:1016200070477546FFF702FBAE4605006946534614
:1016300020F00700854618B020B5FEF777FEBDE81C
:1016400020404FF000064FF000074FF000084FF029
:10165000000B21F00701AC46ACE8C009ACE8C009BA
:10166000ACE8C009ACE8C0098D4670470048704737
:10167000F40000202DE9F0411F46044603260168CE
:10168000072A01F4006004DB08B116A505E016A5E1
:1016900003E008B115A500E015A521F010002060B9
:1016A000A069C01EA0610FB1401EA0612046FEF7D8
:1016B000A5FF4FB1D4E9012138469047206A401C6C
:1016C0002062C01C206206E0206AFAE7D4E901210A
:1016D00015F8010B9047761EF8D22046FEF7A4FFBE
:1016E000BDE8F0814E414E006E616E00494E4600ED
:1016F000696E66003A2800D2303820F02002412A74
:1017000001D3A2F13700884201D34FF0FF30704778
:101710002DE9F047814616468AB0334878440DC813
:101720008DE80D0030487844801C03AC0DC884E877
:101730000D0041F69B300844372190FBF1F290FBFD
:10174000F1F5A5F1800501FB12041B3C02D56442B2
:10175000012000E00020DFF890A080460027FA4436
:10176000AAF1BE0A0DE0E00709D03246684607EB51
:1017700047010AEB810100F05BFB8DE80700641074
:101780007F1C002CEFD1184F7F44AC3F18E0E807D6
:1017900014D007EB04100DF1180A90E80E008AE847
:1017A0000E00C068F04201D198190890324606A98F
:1017B00003A800F03DFB03AB83E807006D10641C39
:1017C000002DE4D132466946B8F1000F03A802D0DB
:1017D00000F01AFB01E000F02BFBC9E90001C9F899
:1017E00008200AB0BDE8F0877815000010B504465F
:1017F000AFF300802046BDE81040FEF768BD00282A
:1018000001D000F029B8704710B5012805D000219B
:1018100003A000F027F8012010BD09A1F8E700009F
:1018200053494752544D454D3A204F7574206F66C9
:101830002068656170206D656D6F72790000000031
:101840003A2048656170206D656D6F727920636F15
:10185000727275707465640001491820ABBEFEE7B2
:101860002600020070B505460C460A2000E06D1CFB
:1018700000F052F835B128780028F8D102E0641C55
:1018800000F04AF814B120780028F8D1BDE8704083
:101890000A2000F041B800004FF0013C50F8042B42
:1018A00051F8043B9A4221D1A2EB0C03934313EA73
:1018B000CC1317D150F8042B51F8043B9A4215D1A0
:1018C000A2EB0C03934313EACC130BD150F8042B77
:1018D00051F8043B9A4209D1A2EB0C03934313EA5B
:1018E000CC13DBD04FF00000704700BFD01A01BA14
:1018F000B1FA81F101F0180122FA01F0CB40C1F1F7
:101900002001DBB2C0B2C01A2CFA01F3D11A914304
:1019100011EAC311E6D1704708B569468DF8000099
:101920000320ABBE08BD5FEA400C08BF91F0000F7A
:101930004FEA8C234FEAC12243EA51514FEA1C502F
:1019400018BF00F5F0404FEA300018BF41F00041E9
:101950005FEA6C5C00F02980BCF1FF3F08BF40F0FB
:1019600080407047130C06BF12044FF0100C4FF06C
:10197000000C130E04BF12020CF1080C130F04BF6D
:1019800012010CF1040C930F04BF92000CF1020C35
:10199000D30F04BF52000CF1010C11464FF00002AE
:1019A000A0F11F00A0EB0C00704711F0004F08BF22
:1019B000704731F000413FF4D5AF0B0C06BF09046E
:1019C0004FF0100C4FF0000C0B0E04BF09020CF18D
:1019D000080C0B0F04BF09010CF1040C8B0F04BFA2
:1019E00089000CF1020CCB0F04BF49000CF1010C73
:1019F000CCF12003A0EB0C0022FA03F302FA0CF264
:101A000041EA030100F10100704720F07F4C80EAB9
:101A1000030023F07F47ACEB070303F57C5300F092
:101A2000004003F1FF032DE980494FEA154B09B44B
:101A30004FEA144325EA0B4E24EA03480FF204262A
:101A400006EB132749083E785FEA320203FB06677C
:101A5000C7F5000707FB06F64FEA54374FEAD646AC
:101A600006F1020607FB066CCCF1005C4FEA1C474E
:101A70002CEA074C07FB06F40CFB06F504EB1546B5
:101A80004FEA961634BF00204FF000404FEAD1379E
:101A900006FB07FC4FEA1C4C0CFB0BF7D21B03FBAD
:101AA0000CF761EB07010CFB0EF7B0EB074072EB94
:101AB00017420CFB08F734BFA2EB0742B2EB074218
:101AC00061EB17414FEA0C444FEA910706FB07FC14
:101AD0004FEA1C4C0CFB0BF7B0EBC74072EB5732D4
:101AE00003FB0CF734BFA2EBC742B2EBC74261EB7A
:101AF00057310CFB0EF7B0EBC70072EB57720CFBC3
:101B000008F734BFA2EBC702B2EBC70261EB577113
:101B1000039F4FEA816141EA921104EBCC044FEA42
:101B2000D1374FEA826206FB07FC42EA90124FEA85
:101B300080604FEA1C4C0CFB0BF7D21B03FB0CF72D
:101B400061EB07010CFB0EF7B0EB074072EB17429D
:101B50000CFB08F734BFA2EB0742B2EB074261EB84
:101B600017414FEA8C554FEA910704EB9C2406FB82
:101B700007FC4FEA1C4C0CFB0BF7B0EBC74072EBB9
:101B8000573203FB0CF734BFA2EBC742B2EBC7429C
:101B900061EB57310CFB0EF7B0EBC70072EB5772DD
:101BA0000CFB08F734BFA2EBC702B2EBC70261EB34
:101BB000577115EB4C254FEA816141EA92114FEACA
:101BC00082624FEAD13742EA901206FB07FC44F1E9
:101BD00000044FEA80604FEA1C4C0CFB0BF7D21B51
:101BE00003FB0CF761EB07010CFB0EF7B0EB0740B2
:101BF00072EB17420CFB08F734BFA2EB0742B2EBC3
:101C0000074261EB174115EB1C154FEA813141EAA0
:101C100092414FEA823242EA90424FEA80304FEAE4
:101C20000C7644F1000448EA03434EEA0B484FF0B7
:101C3000000EB2EB080C71EB030724BF6246394675
:101C40004EEB0E0E4FF0000B0018524149414BEB8A
:101C50000B0BB2EB080C71EB03077BF1000B24BFFD
:101C6000624639464EEB0E0E4FF0000B0018524103
:101C700049414BEB0B0BB2EB080C71EB03077BF10B
:101C8000000B24BF624639464EEB0E0E51EA0207A6
:101C900018BF46F0010616EB0E7655F1000254F11E
:101CA000000103D5BDE88901BDE80088BDE88901D0
:101CB000BDE80048B619524141EB0101A3F101030F
:101CC000704780807F7E7D7C7B7A797877767675A9
:101CD0007473727171706F6E6E6D6C6C6B6A6A6921
:101CE0006868676666656464636362616160605FBB
:101CF0005F5E5E5D5D5C5C5B5B5A5A595958585734
:101D0000575656555555545453535252525151509B
:101D100050504F4F4F4E4E4D4D4D4C4C4C4B4B4BEE
:101D20004A4A4A4949494848484747474746464634
:101D3000454545444444444343434342424242416F
:101D40004141002B26D4770021D01CB54FEA37073C
:101D500003B44FF010004FF010014FF000000FBC23
:101D6000BDE810400BF1010BBBF1010F08BF5FEAAA
:101D7000170722BF12F1010211F101014FF00041DA
:101D800043F1000300F0004043EA00007047F9D33C
:101D90005708DAE746EA064613F1400F4FEA1646BF
:101DA0001FDD13F1200FDFBF16430A460021203349
:101DB0005B42C8D0C3F1200746EA064602FA07F79D
:101DC0004FEA164646EA0706C3F1200722FA03F255
:101DD00001FA07F721FA03F14FF0000342EA070284
:101DE000B1E746EA020646EA06464FEA164646EAE2
:101DF0000106BCBF46EA0646360C4FF000034FF022
:101E000000024FF000019EE72DE9C048934630B430
:101E100091E8380007C831EA400C48BF34EA430C67
:101E200003D5FFF7F2FDFFF78CFFF0BCBDE800889B
:101E30002DE9C048934630B491E8380007C810F047
:101E4000804F08BF13F0804F03D100F005F8FFF773
:101E500078FFF0BCBDE8008820F07F4780EA0300EF
:101E600023F07F4C07EB0C03A3F57C5300F00040FC
:101E7000A3F1FE0392F0000F00F0B38095F0000F85
:101E800000F077802DE901494FEA11404FEA1446EE
:101E900021EA004800FB06FC24EA064708FB06F698
:101EA00007FB08F800FB07F718EB06484CEB164C4D
:101EB0004FEA124B18EB07484FEA15464CEB174018
:101EC00022EA0B4E0BFB06FC25EA06470EFB06F644
:101ED00007FB0EFE0BFB07F71EEB064E4CEB164CFA
:101EE0004FF000061EEB074E4CEB174B18EB0B08A0
:101EF00040F1000018EB0E0B58EB000840F1000019
:101F00008F1A4FF000013CBFC943661B14BFB5EBED
:101F1000040C00213CBFC943F61B4FEA17444EEAAC
:101F20008E0E27EA04454FEA1C4704FB07622CEAA1
:101F3000074C05FB07F70CFB05F604FB0CFC16EB46
:101F4000074642EB174216EB0C4642EB1C421BEBDA
:101F5000060658EB0202414146EA9E0601D5BDE85D
:101F60000189B619524141EB0101A3F10103BDE81A
:101F700001894FEA14454FEA114724EA054621EA50
:101F8000074C05FB07F406FB07F70CFB06F105FB06
:101F90000CFC11EB074144EB17444FEA124711EBDD
:101FA0000C4144EB1C4422EA074C05FB07F206FBFC
:101FB00007F70CFB06F605FB0CFC16EB074642EB9D
:101FC000174216EB0C4642EB1C456A1854F100010F
:101FD00048BF7047B619524141EB0101A3F101031B
:101FE000704795F0000F37D04FEA11424FEA14477F
:101FF00021EA024624EA074C02FB07F106FB07F739
:102000000CFB06F402FB0CFC14EB074441EB1741FC
:102010004FEA154714EB0C4441EB1C4125EA074CF1
:1020200002FB07F506FB07F70CFB06F602FB0CFCB0
:1020300016EB074645EB174516EB0C4645EB1C42E5
:10204000121951F1000148BF7047B619524141EBD6
:102050000101A3F1010370474FEA14454FEA11470C
:1020600024EA054621EA074C05FB07F106FB07F7C2
:102070000CFB06F24FF0000605FB0CFC12EB0742CE
:1020800041EB174112EB0C4251EB1C4148BF70472A
:10209000921841EB0101A3F1010370472348C06C82
:1020A00040F012002149C8646FF0300020490860F8
:1020B0000846006840F0100008601D4808300068BD
:1020C00020F030001A49083108600846006840F0E6
:1020D00030000860081F006820F00400091F086035
:1020E00013480C30006820F0300011490C310860B2
:1020F0006FF440300F4908600846006840F48030B3
:1021000008600846806820F440308860084680688F
:1021100040F4403088600846406820F48070486091
:102120000846C06820F44030C86070470010024084
:1021300000040048001000485E49096821F00701CA
:102140005C4A11601146096841F0020111605A4968
:10215000096841F48071584A116000BF5649096806
:1021600001F480610029F9D010205349496821F019
:10217000F851514A51601146496841EA0061516085
:102180001146096821F08071116000BF4A49096851
:1021900001F00071B1F1007FF8D04749C96821F022
:1021A0000301454AD1601146C96841F00201D1607E
:1021B0001146C96821F4FE4141F4A051D160114695
:1021C000C96821F0700141F01001D1601146C96861
:1021D00021F0C061D1601146C96841F08071D160C1
:1021E0001146096841F08071116000BF32490968E9
:1021F00001F000710029F9D02F49896821F003010D
:102200002D4A91601146896841F00301916000BF39
:102210002949896801F00C010C29F9D126498968FE
:1022200021F0F001244A91601146896821F4E061AF
:1022300091601146896821F46051916011460968E6
:1022400021F08061116000BF1B49096801F08061C5
:10225000B1F1806FF8D01849096921F4FE41164A9E
:1022600011611146096941F4C051116111460969B2
:1022700041F4003111611146096941F48031116165
:102280001146096841F08061116000BF0A49096880
:1022900001F080610029F9D007498831096821F4EB
:1022A0004001054AC2F888101146096E41F4001138
:1022B0001166704700200240001002401A48C06CAE
:1022C00040F008001849C8641848006820F47050AD
:1022D000164908600846006840F42050086013481A
:1022E0002030006840F0EE601049203108600F484F
:1022F0000830006840F470500C4908310860081D2F
:10230000006820F47050091D08600846006840F419
:10231000A05008600548001D006820F060000349D7
:10232000091D08607047000000100240000C0048C2
:1023300000B50D48806D40F400300B4988650A48AF
:102340008830006820F00C00C1F888000846D0F8FA
:10235000880040F00400C1F88800FFF7AFFF034891
:1023600000F010F800BD00000010024000440040E2
:10237000642242430723B2FBF3F100BF4A1E111E41
:10238000FCD17047016821F001010160016821F072
:1023900010210160016821F400410160416821F4CD
:1023A0004051416042F28D01C160016841F00C0171
:1023B00001601E4988421BD1016841F02001016083
:1023C000016821F040010160016821F01001016005
:1023D000016821F080010160016821F480710160D1
:1023E000016821F040010160016821F001010160F4
:1023F0000F49884209D1016A41F0400101620D494B
:10240000096841F0C0010B4A1160016841F0010107
:10241000016000BFC16901F400110029FAD000BFBA
:10242000C16901F480010029FAD07047004C0040D6
:102430000044004008380140014600BFC86900F070
:1024400020000028FAD0888CC0B27047F0B504464E
:102450000E46174600250CE000BFE06900F0800042
:102460000028FAD0705D20854FF49670FFF780FF4A
:102470006D1CBD42F0D300BFE06900F040000028B1
:10248000FAD0E06920F04000E061F0BD03B40198AB
:102490004100009850EAC12018BF04204A0D18BF1F
:1024A00040F0010040F2FF72B2EB515F08BF40F014
:1024B0000200012808BF052002B0704730380A2802
:1024C00001D20120704700207047000008B509A024
:1024D00000F014FB00F0E2FA009001219DF80000EA
:1024E00000F0E4FA09A1684600F012F808B100F023
:1024F00023F808BD54616B65206D6F7265206D65B2
:1025000061737572656D656E74733F004E6E000089
:1025100070B504460D4629462046FDF796FF08B9DA
:10252000002070BD0120FCE710B5CA210148FDF76D
:10253000EAFF10BD0800002002A000F0DFFA00BF93
:10254000FEE7000045786974696E6720746865204D
:1025500070726F6772616D004FF08040406B704722
:102560004FF08040406A70472DE9FE4344A654A7CF
:102570005B480168304600F0ADFA00F08FFA029037
:1025800001219DF8080000F091FA19E09DF808007B
:102590000D2803D153A000F0B1FA04E09DF8081013
:1025A0005BA000F097FA4E480168304600F092FABE
:1025B00000F074FA029001219DF8080000F076FA0C
:1025C0005CA102A8FFF7A4FF0028DFD05BA102A84E
:1025D000FFF79EFF002851D04FF000080020009028
:1025E000019042F2DE623221384600F073FA00F0C8
:1025F00055FA044636E0002509E00DF805400021B3
:10260000204600F053FA6D1C00F048FA04460D2CE9
:1026100001D0042DF1DB6846FDF70AFF3049086060
:102620000846006842F2DE61884203DC2C480068FC
:10263000322814DA0020009001903FA000F05EFAEA
:10264000274801683EA000F045FA42F2DE623221DE
:10265000384600F03FFA00F021FA044601E04FF05E
:10266000010800BFB8F1000FC5D033A000F046FA52
:102670001B48016839A000F02DFA00BF00F078B8BF
:10268000576F756C6420796F75206C696B65207469
:102690006F206368616E676520746865206375727A
:1026A00072656E74206C6F77657220626F756E64F0
:1026B00020282564293F202859206F72204E2900A8
:1026C000456E7465722061206E6577206C6F77654A
:1026D0007220626F756E64202825642D25642900A0
:1026E00004000020496E76616C696420696E707523
:1026F0007420285C6E206F72205C722920706C65DB
:102700006173652074727920616761696E000000F1
:10271000496E76616C696420696E70757420282535
:10272000632920706C65617365207472792061671C
:1027300061696E0059794E6E000000005979000001
:10274000496E76616C6964206C6F77657220626F88
:10275000756E642028256429000000004E657720EE
:102760006C6F77657220626F756E643A2025640025
:1027700006BCBDE8F88300000B48C06C40F00100C7
:102780000949C8644FF09040006800204FF0904124
:1027900008600846006840F0020008600846006AC9
:1027A00040F001000862704700100240FFF7C4FCCF
:1027B000FFF774FCFFF7BCFDFFF7DEFF00F04EF9FA
:1027C00000F012F809E0FFF7CFFE00F0FFF800F08C
:1027D000AFF8FFF77BFEFFF7A7FEF4E74FF080406E
:1027E000006900F00200704770B50025002419A0B0
:1027F00000F084F900F0D8F8FFF7AEFE1A4908603F
:1028000022E0FFF7EBFF90B1FFF7A6FE0446164863
:102810000068201A1549884204D8012514A000F048
:102820006DF911E000F02CF80F4908600CE0FFF79B
:1028300097FE04460C480068201A0C49884203D9C8
:1028400000F01EF808490860002DDAD000F0B5F855
:1028500070BD00005374617274696E6720504F53ED
:10286000542E2E2E0000000000000020A086010043
:10287000504F535420636F6D706C65746500000099
:1028800038B516A000F03AF917A000F037F900F0BB
:1028900005F9009001219DF8000000F007F90AE019
:1028A00016A000F02BF900F0F9F8009001219DF836
:1028B000000000F0FBF81BA16846FFF729FE002886
:1028C000EED01AA16846FFF723FE08B1FFF734FEE9
:1028D000FFF742FE0446204638BD0000504F5354D7
:1028E000206661696C656400547279206167616972
:1028F0006E3F202859206F72204E2900556E726558
:10290000636F676E697A656420696E7075742C20D8
:10291000706C65617365207573652059206F722036
:102920004E00000059794E6E000000004E6E00000F
:1029300070B50E4805680E4800F0E0F80DA000F0F4
:10294000DDF800240CE06D1C104830F8140030B1A4
:102950000E4830F8142029460DA000F0BBF8641C86
:10296000652CF0DB024800F0C9F870BD04000020BF
:10297000B02C0008526573756C74732066726F6DAD
:102980002074657374696E673A00000008000020C7
:10299000253464206D733A202564206D656173755C
:1029A00072656D656E7473004FF08040006840F092
:1029B00001004FF08041086070474FF08040006890
:1029C00000204FF080410860704700002DE9F04181
:1029D00000260127002519A000F090F8FFF7E4FF7A
:1029E00025E0FFF7FBFE10B327B1FFF7B5FD8046EA
:1029F00000271CE0FFF7B0FD0446A4EB0805A04645
:102A0000144800686430854210D812480068854236
:102A10000CD310480068281A0F4931F81000401CE8
:102A20000C490968691A0C4A22F81100761CB6F59F
:102A30007A7FD6DDFFF7C1FFBDE8F08154616B6995
:102A40006E67206D6561737572656D656E74732E4A
:102A50002E2E000004000020080000200E48806D8B
:102A600040F001000C49886550208106886280068C
:102A7000406940F0010048610846006A0020086291
:102A80000846806940F0010088610846006A40F00D
:102A900001000862704700000010024010B50248B3
:102AA000FFF7CAFC10BD00000044004038B50546E1
:102AB0000C46002000900095012269460348FFF76C
:102AC000C5FC14B102A000F019F838BD0044004064
:102AD000000000000FB400B5ADF57B7DFDA8FA90B5
:102AE0006846FA9AFC99FDF791FC0020FA90684636
:102AF00000F004F80DF57B7D5DF814FB2DE9F04145
:102B000005462846FDF7D4FC861C3046FDF728FC18
:102B1000044629462046FDF7A7FC09A12046FDF7FB
:102B2000E6FC2046FDF7C4FC07463A462146054828
:102B3000FFF78CFC2046FDF742FCBDE8F081000069
:102B40000D0A00000044004010B500290AD00878A2
:102B5000002807D005487844FEF79EFE002801D0E3
:102B6000002010BD0248784410BD0000CE010000D6
:102B7000C601000010B500290AD00878002807D047
:102B800005487844FEF788FE002801D0002010BDDB
:102B90000248784410BD0000B2020000AA02000002
:102BA0004FF04070E1EE100A7047FEF7DAB9FEF719
:102BB00011BB000000000000000000003031323383
:102BC0003435363738394142434445464030580061
:102BD0003031323334353637383961626364656693
:102BE00040307800040000080000000000000002EF
:102BF0000001000010303132333435363738396156
:102C0000626364656678700030313233343536374C
:102C100038394142434445465850000002400000C4
:102C2000000000A00000000005400000000000C8F7
:102C3000000000000C4000000000409C000000006C
:102C4000194000000020BCBE00000000344000001D
:102C5000BFC91B8E00000004B5400000504BCFD010
:102C60006607E2CF010000006C4100003E8251AADD
:102C7000DFEEA73401000000D9420000DCB5A0E27D
:102C80003A301F97FFFFFFFFB4450000FD25A0C8A5
:102C9000E9A3C14FFFFFFFFFFF3F000000000080DE
:102CA00000000000FF3F0000000000800000000066
:102CB0002D2D2D2D2D2D2D2D2D2D2D2D2D2D2D2D44
:102CC0002D2D2D2D2D2D2D2D2D2D2D2D2D2D2D2D34
:102CD0002D2D2D2D2D2D2D2D2D2D2D2D2D2D2D2D24
:102CE0002D2D2D2D2D2D2D2D2D2D2D2D2D2D2D2D14
:102CF0002D2D2D2D2D2D2D2D2D2D2D2D2D2D2D2D04
:102D000000000000502E0008000000200800000015
:102D1000C4010008582E00080800002030070000F9
:102D2000E00100081001000043000000F8FFFFFF71
:102D300000404040404040404040414141414140CE
:102D40004040404040404040404040404040404083
:102D50004005020202020202020202020202020212
:102D60000220202020202020202020020202020217
:102D7000020290909090909010101010101010106F
:102D8000101010101010101010101010020202027B
:102D900002028888888888880808080808080808BF
:102DA00008080808080808080808080802020202BB
:102DB00040000000000000000000000000000000D3
:102DC0000000000000000000000000000000000003
:102DD00000000000000000000000000000000000F3
:102DE00000000000000000000000000000000000E3
:102DF00000000000000000000000000000000000D3
:102E000000000000000000000000000000000000C2
:102E100000000000000000000000000000000000B2
:102E200000000000000000000000000000000000A2
:102E3000000000001C00000043000000F8FFFFFF3E
:102E40000C0000000E0000000F0000002E0000002B
:082E500000000000B6030000C1
:040000050800018965
:00000001FF
